{
  "_format": "hh-sol-artifact-1",
  "contractName": "MyEpicNFT",
  "sourceName": "contracts/MyEpicNFT.sol",
  "abi": [
    {
      "inputs": [],
      "stateMutability": "nonpayable",
      "type": "constructor"
    },
    {
      "anonymous": false,
      "inputs": [
        {
          "indexed": true,
          "internalType": "address",
          "name": "owner",
          "type": "address"
        },
        {
          "indexed": true,
          "internalType": "address",
          "name": "approved",
          "type": "address"
        },
        {
          "indexed": true,
          "internalType": "uint256",
          "name": "tokenId",
          "type": "uint256"
        }
      ],
      "name": "Approval",
      "type": "event"
    },
    {
      "anonymous": false,
      "inputs": [
        {
          "indexed": true,
          "internalType": "address",
          "name": "owner",
          "type": "address"
        },
        {
          "indexed": true,
          "internalType": "address",
          "name": "operator",
          "type": "address"
        },
        {
          "indexed": false,
          "internalType": "bool",
          "name": "approved",
          "type": "bool"
        }
      ],
      "name": "ApprovalForAll",
      "type": "event"
    },
    {
      "anonymous": false,
      "inputs": [
        {
          "indexed": false,
          "internalType": "address",
          "name": "sender",
          "type": "address"
        },
        {
          "indexed": false,
          "internalType": "uint256",
          "name": "tokenId",
          "type": "uint256"
        }
      ],
      "name": "NewEpicNFTMinted",
      "type": "event"
    },
    {
      "anonymous": false,
      "inputs": [
        {
          "indexed": true,
          "internalType": "address",
          "name": "from",
          "type": "address"
        },
        {
          "indexed": true,
          "internalType": "address",
          "name": "to",
          "type": "address"
        },
        {
          "indexed": true,
          "internalType": "uint256",
          "name": "tokenId",
          "type": "uint256"
        }
      ],
      "name": "Transfer",
      "type": "event"
    },
    {
      "inputs": [],
      "name": "MAX_SUPPLY",
      "outputs": [
        {
          "internalType": "uint256",
          "name": "",
          "type": "uint256"
        }
      ],
      "stateMutability": "view",
      "type": "function"
    },
    {
      "inputs": [
        {
          "internalType": "address",
          "name": "to",
          "type": "address"
        },
        {
          "internalType": "uint256",
          "name": "tokenId",
          "type": "uint256"
        }
      ],
      "name": "approve",
      "outputs": [],
      "stateMutability": "nonpayable",
      "type": "function"
    },
    {
      "inputs": [
        {
          "internalType": "address",
          "name": "owner",
          "type": "address"
        }
      ],
      "name": "balanceOf",
      "outputs": [
        {
          "internalType": "uint256",
          "name": "",
          "type": "uint256"
        }
      ],
      "stateMutability": "view",
      "type": "function"
    },
    {
      "inputs": [
        {
          "internalType": "uint256",
          "name": "tokenId",
          "type": "uint256"
        }
      ],
      "name": "getApproved",
      "outputs": [
        {
          "internalType": "address",
          "name": "",
          "type": "address"
        }
      ],
      "stateMutability": "view",
      "type": "function"
    },
    {
      "inputs": [
        {
          "internalType": "address",
          "name": "owner",
          "type": "address"
        },
        {
          "internalType": "address",
          "name": "operator",
          "type": "address"
        }
      ],
      "name": "isApprovedForAll",
      "outputs": [
        {
          "internalType": "bool",
          "name": "",
          "type": "bool"
        }
      ],
      "stateMutability": "view",
      "type": "function"
    },
    {
      "inputs": [],
      "name": "makeAnEpicNFT",
      "outputs": [],
      "stateMutability": "nonpayable",
      "type": "function"
    },
    {
      "inputs": [],
      "name": "maxSupply",
      "outputs": [
        {
          "internalType": "uint256",
          "name": "",
          "type": "uint256"
        }
      ],
      "stateMutability": "pure",
      "type": "function"
    },
    {
      "inputs": [],
      "name": "name",
      "outputs": [
        {
          "internalType": "string",
          "name": "",
          "type": "string"
        }
      ],
      "stateMutability": "view",
      "type": "function"
    },
    {
      "inputs": [
        {
          "internalType": "uint256",
          "name": "tokenId",
          "type": "uint256"
        }
      ],
      "name": "ownerOf",
      "outputs": [
        {
          "internalType": "address",
          "name": "",
          "type": "address"
        }
      ],
      "stateMutability": "view",
      "type": "function"
    },
    {
      "inputs": [
        {
          "internalType": "uint256",
          "name": "tokenId",
          "type": "uint256"
        }
      ],
      "name": "pickRandomColor",
      "outputs": [
        {
          "internalType": "string",
          "name": "",
          "type": "string"
        }
      ],
      "stateMutability": "view",
      "type": "function"
    },
    {
      "inputs": [
        {
          "internalType": "uint256",
          "name": "tokenId",
          "type": "uint256"
        }
      ],
      "name": "pickRandomFirstWord",
      "outputs": [
        {
          "internalType": "string",
          "name": "",
          "type": "string"
        }
      ],
      "stateMutability": "view",
      "type": "function"
    },
    {
      "inputs": [
        {
          "internalType": "uint256",
          "name": "tokenId",
          "type": "uint256"
        }
      ],
      "name": "pickRandomSecondWord",
      "outputs": [
        {
          "internalType": "string",
          "name": "",
          "type": "string"
        }
      ],
      "stateMutability": "view",
      "type": "function"
    },
    {
      "inputs": [
        {
          "internalType": "uint256",
          "name": "tokenId",
          "type": "uint256"
        }
      ],
      "name": "pickRandomThirdWord",
      "outputs": [
        {
          "internalType": "string",
          "name": "",
          "type": "string"
        }
      ],
      "stateMutability": "view",
      "type": "function"
    },
    {
      "inputs": [
        {
          "internalType": "address",
          "name": "from",
          "type": "address"
        },
        {
          "internalType": "address",
          "name": "to",
          "type": "address"
        },
        {
          "internalType": "uint256",
          "name": "tokenId",
          "type": "uint256"
        }
      ],
      "name": "safeTransferFrom",
      "outputs": [],
      "stateMutability": "nonpayable",
      "type": "function"
    },
    {
      "inputs": [
        {
          "internalType": "address",
          "name": "from",
          "type": "address"
        },
        {
          "internalType": "address",
          "name": "to",
          "type": "address"
        },
        {
          "internalType": "uint256",
          "name": "tokenId",
          "type": "uint256"
        },
        {
          "internalType": "bytes",
          "name": "_data",
          "type": "bytes"
        }
      ],
      "name": "safeTransferFrom",
      "outputs": [],
      "stateMutability": "nonpayable",
      "type": "function"
    },
    {
      "inputs": [
        {
          "internalType": "address",
          "name": "operator",
          "type": "address"
        },
        {
          "internalType": "bool",
          "name": "approved",
          "type": "bool"
        }
      ],
      "name": "setApprovalForAll",
      "outputs": [],
      "stateMutability": "nonpayable",
      "type": "function"
    },
    {
      "inputs": [
        {
          "internalType": "bytes4",
          "name": "interfaceId",
          "type": "bytes4"
        }
      ],
      "name": "supportsInterface",
      "outputs": [
        {
          "internalType": "bool",
          "name": "",
          "type": "bool"
        }
      ],
      "stateMutability": "view",
      "type": "function"
    },
    {
      "inputs": [],
      "name": "symbol",
      "outputs": [
        {
          "internalType": "string",
          "name": "",
          "type": "string"
        }
      ],
      "stateMutability": "view",
      "type": "function"
    },
    {
      "inputs": [
        {
          "internalType": "uint256",
          "name": "tokenId",
          "type": "uint256"
        }
      ],
      "name": "tokenURI",
      "outputs": [
        {
          "internalType": "string",
          "name": "",
          "type": "string"
        }
      ],
      "stateMutability": "view",
      "type": "function"
    },
    {
      "inputs": [],
      "name": "totalNftsMinted",
      "outputs": [
        {
          "internalType": "uint256",
          "name": "",
          "type": "uint256"
        }
      ],
      "stateMutability": "view",
      "type": "function"
    },
    {
      "inputs": [
        {
          "internalType": "address",
          "name": "from",
          "type": "address"
        },
        {
          "internalType": "address",
          "name": "to",
          "type": "address"
        },
        {
          "internalType": "uint256",
          "name": "tokenId",
          "type": "uint256"
        }
      ],
      "name": "transferFrom",
      "outputs": [],
      "stateMutability": "nonpayable",
      "type": "function"
    }
  ],
  "bytecode": "0x608060405260405180610100016040528060d38152602001620054e160d391396009908051906020019062000036929190620014a2565b50604051806080016040528060568152602001620055b460569139600a908051906020019062000068929190620014a2565b50604051806101e001604052806040518060400160405280600a81526020017f4461726b56696f6c65740000000000000000000000000000000000000000000081525081526020016040518060400160405280600b81526020017f466f72657374477265656e00000000000000000000000000000000000000000081525081526020016040518060400160405280600581526020017f4b68616b6900000000000000000000000000000000000000000000000000000081525081526020016040518060400160405280600a81526020017f4c69676874436f72616c0000000000000000000000000000000000000000000081525081526020016040518060400160405280600981526020017f4c696d65477265656e000000000000000000000000000000000000000000000081525081526020016040518060400160405280600481526020017f476f6c640000000000000000000000000000000000000000000000000000000081525081526020016040518060400160405280600481526020017f4e6176790000000000000000000000000000000000000000000000000000000081525081526020016040518060400160405280600981526020017f537465656c426c7565000000000000000000000000000000000000000000000081525081526020016040518060400160405280600681526020017f546f6d61746f000000000000000000000000000000000000000000000000000081525081526020016040518060400160405280600b81526020017f537072696e67477265656e00000000000000000000000000000000000000000081525081526020016040518060400160405280600981526020017f536c61746547726179000000000000000000000000000000000000000000000081525081526020016040518060400160405280600581526020017f4f6c69766500000000000000000000000000000000000000000000000000000081525081526020016040518060400160405280600781526020017f467563687369610000000000000000000000000000000000000000000000000081525081526020016040518060400160405280600a81526020017f4461726b4f72616e67650000000000000000000000000000000000000000000081525081526020016040518060400160405280600b81526020017f536164646c6542726f776e000000000000000000000000000000000000000000815250815250600b90600f620003fa92919062001533565b50604051806102a001604052806040518060400160405280600781526020017f537475666665640000000000000000000000000000000000000000000000000081525081526020016040518060400160405280600681526020017f4a7569636564000000000000000000000000000000000000000000000000000081525081526020016040518060400160405280600681526020017f5a6f6f746564000000000000000000000000000000000000000000000000000081525081526020016040518060400160405280600681526020017f52616d6d6564000000000000000000000000000000000000000000000000000081525081526020016040518060400160405280600781526020017f4d616e676c65640000000000000000000000000000000000000000000000000081525081526020016040518060400160405280600681526020017f5761636b6564000000000000000000000000000000000000000000000000000081525081526020016040518060400160405280600481526020017f457069630000000000000000000000000000000000000000000000000000000081525081526020016040518060400160405280600481526020017f57696c640000000000000000000000000000000000000000000000000000000081525081526020016040518060400160405280600681526020017f496e73616e65000000000000000000000000000000000000000000000000000081525081526020016040518060400160405280600581526020017f466164656400000000000000000000000000000000000000000000000000000081525081526020016040518060400160405280600681526020017f576173746564000000000000000000000000000000000000000000000000000081525081526020016040518060400160405280600881526020017f5465727269626c6500000000000000000000000000000000000000000000000081525081526020016040518060400160405280600981526020017f50737963686f746963000000000000000000000000000000000000000000000081525081526020016040518060400160405280600981526020017f46616e746173746963000000000000000000000000000000000000000000000081525081526020016040518060400160405280600981526020017f42616c6c6f6f6e6564000000000000000000000000000000000000000000000081525081526020016040518060400160405280600681526020017f426966666564000000000000000000000000000000000000000000000000000081525081526020016040518060400160405280600781526020017f537461727665640000000000000000000000000000000000000000000000000081525081526020016040518060400160405280600681526020017f426f726b6564000000000000000000000000000000000000000000000000000081525081526020016040518060400160405280600681526020017f476173736564000000000000000000000000000000000000000000000000000081525081526020016040518060400160405280600581526020017f486169727900000000000000000000000000000000000000000000000000000081525081526020016040518060400160405280600681526020017f476f6f7365640000000000000000000000000000000000000000000000000000815250815250600c906015620008ee9291906200159a565b50604051806102a001604052806040518060400160405280600581526020017f546967657200000000000000000000000000000000000000000000000000000081525081526020016040518060400160405280600a81526020017f57696c646562656173740000000000000000000000000000000000000000000081525081526020016040518060400160405280600581526020017f4879656e6100000000000000000000000000000000000000000000000000000081525081526020016040518060400160405280600481526020017f4c696f6e0000000000000000000000000000000000000000000000000000000081525081526020016040518060400160405280600781526020017f526163636f6f6e0000000000000000000000000000000000000000000000000081525081526020016040518060400160405280600781526020017f4d616d6d6f74680000000000000000000000000000000000000000000000000081525081526020016040518060400160405280600581526020017f4d6f6f736500000000000000000000000000000000000000000000000000000081525081526020016040518060400160405280600881526020017f416e74656174657200000000000000000000000000000000000000000000000081525081526020016040518060400160405280600681526020017f547572746c65000000000000000000000000000000000000000000000000000081525081526020016040518060400160405280600581526020017f4761746f7200000000000000000000000000000000000000000000000000000081525081526020016040518060400160405280600481526020017f43726f630000000000000000000000000000000000000000000000000000000081525081526020016040518060400160405280600481526020017f5377616e0000000000000000000000000000000000000000000000000000000081525081526020016040518060400160405280600481526020017f46726f670000000000000000000000000000000000000000000000000000000081525081526020016040518060400160405280600381526020017f506967000000000000000000000000000000000000000000000000000000000081525081526020016040518060400160405280600381526020017f436f77000000000000000000000000000000000000000000000000000000000081525081526020016040518060400160405280600581526020017f5a6562726100000000000000000000000000000000000000000000000000000081525081526020016040518060400160405280600681526020017f4d6f6e6b6579000000000000000000000000000000000000000000000000000081525081526020016040518060400160405280600581526020017f486970706f00000000000000000000000000000000000000000000000000000081525081526020016040518060400160405280600781526020017f446f6c7068696e0000000000000000000000000000000000000000000000000081525081526020016040518060400160405280600681526020017f446f6e6b6579000000000000000000000000000000000000000000000000000081525081526020016040518060400160405280600581526020017f486f727365000000000000000000000000000000000000000000000000000000815250815250600d90601562000de29291906200159a565b50604051806102a001604052806040518060400160405280600581526020017f50697a7a6100000000000000000000000000000000000000000000000000000081525081526020016040518060400160405280600781526020017f436869636b656e0000000000000000000000000000000000000000000000000081525081526020016040518060400160405280600781526020017f5370696e6163680000000000000000000000000000000000000000000000000081525081526020016040518060400160405280600581526020017f437572727900000000000000000000000000000000000000000000000000000081525081526020016040518060400160405280600581526020017f57696e677300000000000000000000000000000000000000000000000000000081525081526020016040518060400160405280600881526020017f53616e647769636800000000000000000000000000000000000000000000000081525081526020016040518060400160405280600681526020017f53616c6d6f6e000000000000000000000000000000000000000000000000000081525081526020016040518060400160405280600681526020017f48756d6d7573000000000000000000000000000000000000000000000000000081525081526020016040518060400160405280600681526020017f436865657365000000000000000000000000000000000000000000000000000081525081526020016040518060400160405280600581526020017f5461636f7300000000000000000000000000000000000000000000000000000081525081526020016040518060400160405280600781526020017f4e6f6f646c65730000000000000000000000000000000000000000000000000081525081526020016040518060400160405280600581526020017f537573686900000000000000000000000000000000000000000000000000000081525081526020016040518060400160405280600781526020017f4564616d616d650000000000000000000000000000000000000000000000000081525081526020016040518060400160405280600781526020017f426973637569740000000000000000000000000000000000000000000000000081525081526020016040518060400160405280600781526020017f427269736b69740000000000000000000000000000000000000000000000000081525081526020016040518060400160405280600681526020017f537175617368000000000000000000000000000000000000000000000000000081525081526020016040518060400160405280600581526020017f4265616e7300000000000000000000000000000000000000000000000000000081525081526020016040518060400160405280600581526020017f436869707300000000000000000000000000000000000000000000000000000081525081526020016040518060400160405280600481526020017f426565660000000000000000000000000000000000000000000000000000000081525081526020016040518060400160405280600681526020017f427574746572000000000000000000000000000000000000000000000000000081525081526020016040518060400160405280600381526020017f4f696c0000000000000000000000000000000000000000000000000000000000815250815250600e906015620012d69291906200159a565b50348015620012e457600080fd5b506040518060400160405280600981526020017f5371756172654e465400000000000000000000000000000000000000000000008152506040518060400160405280600681526020017f5351554152450000000000000000000000000000000000000000000000000000815250816000908051906020019062001369929190620014a2565b50806001908051906020019062001382929190620014a2565b505050620013d06040518060400160405280601e81526020017f54686973206973206d79204e465420636f6e74726163742e20576f6168210000815250620013d660201b6200137d1760201c565b620017bb565b6200147681604051602401620013ed9190620016cf565b6040516020818303038152906040527f41304fac000000000000000000000000000000000000000000000000000000007bffffffffffffffffffffffffffffffffffffffffffffffffffffffff19166020820180517bffffffffffffffffffffffffffffffffffffffffffffffffffffffff83818316178352505050506200147960201b60201c565b50565b60008151905060006a636f6e736f6c652e6c6f679050602083016000808483855afa5050505050565b828054620014b09062001745565b90600052602060002090601f016020900481019282620014d4576000855562001520565b82601f10620014ef57805160ff191683800117855562001520565b8280016001018555821562001520579182015b828111156200151f57825182559160200191906001019062001502565b5b5090506200152f919062001601565b5090565b82805482825590600052602060002090810192821562001587579160200282015b828111156200158657825182908051906020019062001575929190620014a2565b509160200191906001019062001554565b5b50905062001596919062001620565b5090565b828054828255906000526020600020908101928215620015ee579160200282015b82811115620015ed578251829080519060200190620015dc929190620014a2565b5091602001919060010190620015bb565b5b509050620015fd919062001620565b5090565b5b808211156200161c57600081600090555060010162001602565b5090565b5b808211156200164457600081816200163a919062001648565b5060010162001621565b5090565b508054620016569062001745565b6000825580601f106200166a57506200168b565b601f0160209004906000526020600020908101906200168a919062001601565b5b50565b60006200169b82620016f3565b620016a78185620016fe565b9350620016b98185602086016200170f565b620016c481620017aa565b840191505092915050565b60006020820190508181036000830152620016eb81846200168e565b905092915050565b600081519050919050565b600082825260208201905092915050565b60005b838110156200172f57808201518184015260208101905062001712565b838111156200173f576000848401525b50505050565b600060028204905060018216806200175e57607f821691505b602082108114156200177557620017746200177b565b5b50919050565b7f4e487b7100000000000000000000000000000000000000000000000000000000600052602260045260246000fd5b6000601f19601f8301169050919050565b613d1680620017cb6000396000f3fe608060405234801561001057600080fd5b50600436106101375760003560e01c806370a08231116100b8578063b88d4fde1161007c578063b88d4fde14610374578063c575757a14610390578063c87b56dd146103c0578063d5abeb01146103f0578063de9d132f1461040e578063e985e9c51461041857610137565b806370a08231146102bc57806372fbaacb146102ec57806395d89b411461030a578063a22cb46514610328578063b187301f1461034457610137565b80632de38d68116100ff5780632de38d68146101f257806332cb6b0c1461022257806342842e0e14610240578063514dc8c61461025c5780636352211e1461028c57610137565b806301ffc9a71461013c57806306fdde031461016c578063081812fc1461018a578063095ea7b3146101ba57806323b872dd146101d6575b600080fd5b6101566004803603810190610151919061281c565b610448565b6040516101639190613520565b60405180910390f35b61017461052a565b604051610181919061353b565b60405180910390f35b6101a4600480360381019061019f919061286e565b6105bc565b6040516101b19190613490565b60405180910390f35b6101d460048036038101906101cf91906127e0565b610641565b005b6101f060048036038101906101eb91906126da565b610759565b005b61020c6004803603810190610207919061286e565b6107b9565b604051610219919061353b565b60405180910390f35b61022a6108d7565b6040516102379190613807565b60405180910390f35b61025a600480360381019061025591906126da565b6108dc565b005b6102766004803603810190610271919061286e565b6108fc565b604051610283919061353b565b60405180910390f35b6102a660048036038101906102a1919061286e565b610a1a565b6040516102b39190613490565b60405180910390f35b6102d660048036038101906102d19190612675565b610acc565b6040516102e39190613807565b60405180910390f35b6102f4610b84565b6040516103019190613807565b60405180910390f35b610312610b95565b60405161031f919061353b565b60405180910390f35b610342600480360381019061033d91906127a4565b610c27565b005b61035e6004803603810190610359919061286e565b610c3d565b60405161036b919061353b565b60405180910390f35b61038e60048036038101906103899190612729565b610d5b565b005b6103aa60048036038101906103a5919061286e565b610dbd565b6040516103b7919061353b565b60405180910390f35b6103da60048036038101906103d5919061286e565b610edb565b6040516103e7919061353b565b60405180910390f35b6103f861102d565b6040516104059190613807565b60405180910390f35b610416611036565b005b610432600480360381019061042d919061269e565b6112e9565b60405161043f9190613520565b60405180910390f35b60007f80ac58cd000000000000000000000000000000000000000000000000000000007bffffffffffffffffffffffffffffffffffffffffffffffffffffffff1916827bffffffffffffffffffffffffffffffffffffffffffffffffffffffff1916148061051357507f5b5e139f000000000000000000000000000000000000000000000000000000007bffffffffffffffffffffffffffffffffffffffffffffffffffffffff1916827bffffffffffffffffffffffffffffffffffffffffffffffffffffffff1916145b80610523575061052282611416565b5b9050919050565b60606000805461053990613aa6565b80601f016020809104026020016040519081016040528092919081815260200182805461056590613aa6565b80156105b25780601f10610587576101008083540402835291602001916105b2565b820191906000526020600020905b81548152906001019060200180831161059557829003601f168201915b5050505050905090565b60006105c782611480565b610606576040517f08c379a00000000000000000000000000000000000000000000000000000000081526004016105fd90613747565b60405180910390fd5b6004600083815260200190815260200160002060009054906101000a900473ffffffffffffffffffffffffffffffffffffffff169050919050565b600061064c82610a1a565b90508073ffffffffffffffffffffffffffffffffffffffff168373ffffffffffffffffffffffffffffffffffffffff1614156106bd576040517f08c379a00000000000000000000000000000000000000000000000000000000081526004016106b4906137a7565b60405180910390fd5b8073ffffffffffffffffffffffffffffffffffffffff166106dc6114ec565b73ffffffffffffffffffffffffffffffffffffffff16148061070b575061070a816107056114ec565b6112e9565b5b61074a576040517f08c379a000000000000000000000000000000000000000000000000000000000815260040161074190613687565b60405180910390fd5b61075483836114f4565b505050565b61076a6107646114ec565b826115ad565b6107a9576040517f08c379a00000000000000000000000000000000000000000000000000000000081526004016107a0906137c7565b60405180910390fd5b6107b483838361168b565b505050565b606060006107ed6107c9846118e7565b6040516020016107d9919061342a565b604051602081830303815290604052611a94565b9050600c80549050816108009190613b21565b9050600c818154811061083c577f4e487b7100000000000000000000000000000000000000000000000000000000600052603260045260246000fd5b90600052602060002001805461085190613aa6565b80601f016020809104026020016040519081016040528092919081815260200182805461087d90613aa6565b80156108ca5780601f1061089f576101008083540402835291602001916108ca565b820191906000526020600020905b8154815290600101906020018083116108ad57829003601f168201915b5050505050915050919050565b603281565b6108f783838360405180602001604052806000815250610d5b565b505050565b6060600061093061090c846118e7565b60405160200161091c919061346e565b604051602081830303815290604052611a94565b9050600b80549050816109439190613b21565b9050600b818154811061097f577f4e487b7100000000000000000000000000000000000000000000000000000000600052603260045260246000fd5b90600052602060002001805461099490613aa6565b80601f01602080910402602001604051908101604052809291908181526020018280546109c090613aa6565b8015610a0d5780601f106109e257610100808354040283529160200191610a0d565b820191906000526020600020905b8154815290600101906020018083116109f057829003601f168201915b5050505050915050919050565b6000806002600084815260200190815260200160002060009054906101000a900473ffffffffffffffffffffffffffffffffffffffff169050600073ffffffffffffffffffffffffffffffffffffffff168173ffffffffffffffffffffffffffffffffffffffff161415610ac3576040517f08c379a0000000000000000000000000000000000000000000000000000000008152600401610aba906136c7565b60405180910390fd5b80915050919050565b60008073ffffffffffffffffffffffffffffffffffffffff168273ffffffffffffffffffffffffffffffffffffffff161415610b3d576040517f08c379a0000000000000000000000000000000000000000000000000000000008152600401610b34906136a7565b60405180910390fd5b600360008373ffffffffffffffffffffffffffffffffffffffff1673ffffffffffffffffffffffffffffffffffffffff168152602001908152602001600020549050919050565b6000610b906008611ac7565b905090565b606060018054610ba490613aa6565b80601f0160208091040260200160405190810160405280929190818152602001828054610bd090613aa6565b8015610c1d5780601f10610bf257610100808354040283529160200191610c1d565b820191906000526020600020905b815481529060010190602001808311610c0057829003601f168201915b5050505050905090565b610c39610c326114ec565b8383611ad5565b5050565b60606000610c71610c4d846118e7565b604051602001610c5d91906133c3565b604051602081830303815290604052611a94565b9050600d8054905081610c849190613b21565b9050600d8181548110610cc0577f4e487b7100000000000000000000000000000000000000000000000000000000600052603260045260246000fd5b906000526020600020018054610cd590613aa6565b80601f0160208091040260200160405190810160405280929190818152602001828054610d0190613aa6565b8015610d4e5780601f10610d2357610100808354040283529160200191610d4e565b820191906000526020600020905b815481529060010190602001808311610d3157829003601f168201915b5050505050915050919050565b610d6c610d666114ec565b836115ad565b610dab576040517f08c379a0000000000000000000000000000000000000000000000000000000008152600401610da2906137c7565b60405180910390fd5b610db784848484611c42565b50505050565b60606000610df1610dcd846118e7565b604051602001610ddd91906133a1565b604051602081830303815290604052611a94565b9050600e8054905081610e049190613b21565b9050600e8181548110610e40577f4e487b7100000000000000000000000000000000000000000000000000000000600052603260045260246000fd5b906000526020600020018054610e5590613aa6565b80601f0160208091040260200160405190810160405280929190818152602001828054610e8190613aa6565b8015610ece5780601f10610ea357610100808354040283529160200191610ece565b820191906000526020600020905b815481529060010190602001808311610eb157829003601f168201915b5050505050915050919050565b6060610ee682611480565b610f25576040517f08c379a0000000000000000000000000000000000000000000000000000000008152600401610f1c90613727565b60405180910390fd5b6000600660008481526020019081526020016000208054610f4590613aa6565b80601f0160208091040260200160405190810160405280929190818152602001828054610f7190613aa6565b8015610fbe5780601f10610f9357610100808354040283529160200191610fbe565b820191906000526020600020905b815481529060010190602001808311610fa157829003601f168201915b505050505090506000610fcf611c9e565b9050600081511415610fe5578192505050611028565b60008251111561101a578082604051602001611002929190613303565b60405160208183030381529060405292505050611028565b61102384611cb5565b925050505b919050565b60006032905090565b60006110426007611ac7565b9050603261104e610b84565b1061108e576040517f08c379a0000000000000000000000000000000000000000000000000000000008152600401611085906137e7565b60405180910390fd5b6000611099826107b9565b905060006110a683610c3d565b905060006110b384610dbd565b905060008383836040516020016110cc93929190613327565b604051602081830303815290604052905060006110e8866108fc565b90506000600982600a856040516020016111059493929190613358565b604051602081830303815290604052905061118b6040518060400160405280601081526020017f0a0a204c4f473a2066696e616c53766700000000000000000000000000000000815250826040518060400160405280600281526020017f0a0a000000000000000000000000000000000000000000000000000000000000815250611d5c565b60006111bf8461119a84611dfb565b6040516020016111ab9291906133e5565b604051602081830303815290604052611dfb565b90506000816040516020016111d4919061344c565b604051602081830303815290604052905061125a6040518060400160405280601581526020017f0a0a204c4f473a2066696e616c546f6b656e5572690000000000000000000000815250826040518060400160405280600281526020017f0a0a000000000000000000000000000000000000000000000000000000000000815250611d5c565b611264338a611fb9565b61126e8982611fd7565b611278600761204b565b611282600861204b565b6112a5604051806060016040528060258152602001613c7c602591398a33612061565b7febb98688741ffa4c7589bf325de30cf7becb63de567842e1ccdb6cb949fdc82c338a6040516112d69291906134f7565b60405180910390a1505050505050505050565b6000600560008473ffffffffffffffffffffffffffffffffffffffff1673ffffffffffffffffffffffffffffffffffffffff16815260200190815260200160002060008373ffffffffffffffffffffffffffffffffffffffff1673ffffffffffffffffffffffffffffffffffffffff16815260200190815260200160002060009054906101000a900460ff16905092915050565b61141381604051602401611391919061353b565b6040516020818303038152906040527f41304fac000000000000000000000000000000000000000000000000000000007bffffffffffffffffffffffffffffffffffffffffffffffffffffffff19166020820180517bffffffffffffffffffffffffffffffffffffffffffffffffffffffff8381831617835250505050612100565b50565b60007f01ffc9a7000000000000000000000000000000000000000000000000000000007bffffffffffffffffffffffffffffffffffffffffffffffffffffffff1916827bffffffffffffffffffffffffffffffffffffffffffffffffffffffff1916149050919050565b60008073ffffffffffffffffffffffffffffffffffffffff166002600084815260200190815260200160002060009054906101000a900473ffffffffffffffffffffffffffffffffffffffff1673ffffffffffffffffffffffffffffffffffffffff1614159050919050565b600033905090565b816004600083815260200190815260200160002060006101000a81548173ffffffffffffffffffffffffffffffffffffffff021916908373ffffffffffffffffffffffffffffffffffffffff160217905550808273ffffffffffffffffffffffffffffffffffffffff1661156783610a1a565b73ffffffffffffffffffffffffffffffffffffffff167f8c5be1e5ebec7d5bd14f71427d1e84f3dd0314c0f7b2291e5b200ac8c7c3b92560405160405180910390a45050565b60006115b882611480565b6115f7576040517f08c379a00000000000000000000000000000000000000000000000000000000081526004016115ee90613667565b60405180910390fd5b600061160283610a1a565b90508073ffffffffffffffffffffffffffffffffffffffff168473ffffffffffffffffffffffffffffffffffffffff16148061167157508373ffffffffffffffffffffffffffffffffffffffff16611659846105bc565b73ffffffffffffffffffffffffffffffffffffffff16145b80611682575061168181856112e9565b5b91505092915050565b8273ffffffffffffffffffffffffffffffffffffffff166116ab82610a1a565b73ffffffffffffffffffffffffffffffffffffffff1614611701576040517f08c379a00000000000000000000000000000000000000000000000000000000081526004016116f890613767565b60405180910390fd5b600073ffffffffffffffffffffffffffffffffffffffff168273ffffffffffffffffffffffffffffffffffffffff161415611771576040517f08c379a000000000000000000000000000000000000000000000000000000000815260040161176890613627565b60405180910390fd5b61177c838383612129565b6117876000826114f4565b6001600360008573ffffffffffffffffffffffffffffffffffffffff1673ffffffffffffffffffffffffffffffffffffffff16815260200190815260200160002060008282546117d791906139bc565b925050819055506001600360008473ffffffffffffffffffffffffffffffffffffffff1673ffffffffffffffffffffffffffffffffffffffff168152602001908152602001600020600082825461182e91906138db565b92505081905550816002600083815260200190815260200160002060006101000a81548173ffffffffffffffffffffffffffffffffffffffff021916908373ffffffffffffffffffffffffffffffffffffffff160217905550808273ffffffffffffffffffffffffffffffffffffffff168473ffffffffffffffffffffffffffffffffffffffff167fddf252ad1be2c89b69c2b068fc378daa952ba7f163c4a11628f55a4df523b3ef60405160405180910390a4505050565b6060600082141561192f576040518060400160405280600181526020017f30000000000000000000000000000000000000000000000000000000000000008152509050611a8f565b600082905060005b6000821461196157808061194a90613ad8565b915050600a8261195a9190613931565b9150611937565b60008167ffffffffffffffff8111156119a3577f4e487b7100000000000000000000000000000000000000000000000000000000600052604160045260246000fd5b6040519080825280601f01601f1916602001820160405280156119d55781602001600182028036833780820191505090505b5090505b60008514611a88576001826119ee91906139bc565b9150600a856119fd9190613b21565b6030611a0991906138db565b60f81b818381518110611a45577f4e487b7100000000000000000000000000000000000000000000000000000000600052603260045260246000fd5b60200101907effffffffffffffffffffffffffffffffffffffffffffffffffffffffffffff1916908160001a905350600a85611a819190613931565b94506119d9565b8093505050505b919050565b600081604051602001611aa791906132ec565b6040516020818303038152906040528051906020012060001c9050919050565b600081600001549050919050565b8173ffffffffffffffffffffffffffffffffffffffff168373ffffffffffffffffffffffffffffffffffffffff161415611b44576040517f08c379a0000000000000000000000000000000000000000000000000000000008152600401611b3b90613647565b60405180910390fd5b80600560008573ffffffffffffffffffffffffffffffffffffffff1673ffffffffffffffffffffffffffffffffffffffff16815260200190815260200160002060008473ffffffffffffffffffffffffffffffffffffffff1673ffffffffffffffffffffffffffffffffffffffff16815260200190815260200160002060006101000a81548160ff0219169083151502179055508173ffffffffffffffffffffffffffffffffffffffff168373ffffffffffffffffffffffffffffffffffffffff167f17307eab39ab6107e8899845ad3d59bd9653f200f220920489ca2b5937696c3183604051611c359190613520565b60405180910390a3505050565b611c4d84848461168b565b611c598484848461212e565b611c98576040517f08c379a0000000000000000000000000000000000000000000000000000000008152600401611c8f906135e7565b60405180910390fd5b50505050565b606060405180602001604052806000815250905090565b6060611cc082611480565b611cff576040517f08c379a0000000000000000000000000000000000000000000000000000000008152600401611cf690613787565b60405180910390fd5b6000611d09611c9e565b90506000815111611d295760405180602001604052806000815250611d54565b80611d33846118e7565b604051602001611d44929190613303565b6040516020818303038152906040525b915050919050565b611df6838383604051602401611d749392919061355d565b6040516020818303038152906040527f2ced7cef000000000000000000000000000000000000000000000000000000007bffffffffffffffffffffffffffffffffffffffffffffffffffffffff19166020820180517bffffffffffffffffffffffffffffffffffffffffffffffffffffffff8381831617835250505050612100565b505050565b60606000825190506000811415611e245760405180602001604052806000815250915050611fb4565b60006003600283611e3591906138db565b611e3f9190613931565b6004611e4b9190613962565b90506000602082611e5c91906138db565b67ffffffffffffffff811115611e9b577f4e487b7100000000000000000000000000000000000000000000000000000000600052604160045260246000fd5b6040519080825280601f01601f191660200182016040528015611ecd5781602001600182028036833780820191505090505b5090506000604051806060016040528060408152602001613ca1604091399050600181016020830160005b86811015611f715760038101905062ffffff818a015116603f8160121c168401518060081b905060ff603f83600c1c1686015116810190508060081b905060ff603f8360061c1686015116810190508060081b905060ff603f831686015116810190508060e01b90508084526004840193505050611ef8565b506003860660018114611f8b5760028114611f9b57611fa6565b613d3d60f01b6002830352611fa6565b603d60f81b60018303525b508484525050819450505050505b919050565b611fd38282604051806020016040528060008152506122c5565b5050565b611fe082611480565b61201f576040517f08c379a0000000000000000000000000000000000000000000000000000000008152600401612016906136e7565b60405180910390fd5b80600660008481526020019081526020016000209080519060200190612046929190612501565b505050565b6001816000016000828254019250508190555050565b6120fb838383604051602401612079939291906135a9565b6040516020818303038152906040527fe3849f79000000000000000000000000000000000000000000000000000000007bffffffffffffffffffffffffffffffffffffffffffffffffffffffff19166020820180517bffffffffffffffffffffffffffffffffffffffffffffffffffffffff8381831617835250505050612100565b505050565b60008151905060006a636f6e736f6c652e6c6f679050602083016000808483855afa5050505050565b505050565b600061214f8473ffffffffffffffffffffffffffffffffffffffff16612320565b156122b8578373ffffffffffffffffffffffffffffffffffffffff1663150b7a026121786114ec565b8786866040518563ffffffff1660e01b815260040161219a94939291906134ab565b602060405180830381600087803b1580156121b457600080fd5b505af19250505080156121e557506040513d601f19601f820116820180604052508101906121e29190612845565b60015b612268573d8060008114612215576040519150601f19603f3d011682016040523d82523d6000602084013e61221a565b606091505b50600081511415612260576040517f08c379a0000000000000000000000000000000000000000000000000000000008152600401612257906135e7565b60405180910390fd5b805181602001fd5b63150b7a0260e01b7bffffffffffffffffffffffffffffffffffffffffffffffffffffffff1916817bffffffffffffffffffffffffffffffffffffffffffffffffffffffff1916149150506122bd565b600190505b949350505050565b6122cf8383612333565b6122dc600084848461212e565b61231b576040517f08c379a0000000000000000000000000000000000000000000000000000000008152600401612312906135e7565b60405180910390fd5b505050565b600080823b905060008111915050919050565b600073ffffffffffffffffffffffffffffffffffffffff168273ffffffffffffffffffffffffffffffffffffffff1614156123a3576040517f08c379a000000000000000000000000000000000000000000000000000000000815260040161239a90613707565b60405180910390fd5b6123ac81611480565b156123ec576040517f08c379a00000000000000000000000000000000000000000000000000000000081526004016123e390613607565b60405180910390fd5b6123f860008383612129565b6001600360008473ffffffffffffffffffffffffffffffffffffffff1673ffffffffffffffffffffffffffffffffffffffff168152602001908152602001600020600082825461244891906138db565b92505081905550816002600083815260200190815260200160002060006101000a81548173ffffffffffffffffffffffffffffffffffffffff021916908373ffffffffffffffffffffffffffffffffffffffff160217905550808273ffffffffffffffffffffffffffffffffffffffff16600073ffffffffffffffffffffffffffffffffffffffff167fddf252ad1be2c89b69c2b068fc378daa952ba7f163c4a11628f55a4df523b3ef60405160405180910390a45050565b82805461250d90613aa6565b90600052602060002090601f01602090048101928261252f5760008555612576565b82601f1061254857805160ff1916838001178555612576565b82800160010185558215612576579182015b8281111561257557825182559160200191906001019061255a565b5b5090506125839190612587565b5090565b5b808211156125a0576000816000905550600101612588565b5090565b60006125b76125b284613853565b613822565b9050828152602081018484840111156125cf57600080fd5b6125da848285613a64565b509392505050565b6000813590506125f181613c1f565b92915050565b60008135905061260681613c36565b92915050565b60008135905061261b81613c4d565b92915050565b60008151905061263081613c4d565b92915050565b600082601f83011261264757600080fd5b81356126578482602086016125a4565b91505092915050565b60008135905061266f81613c64565b92915050565b60006020828403121561268757600080fd5b6000612695848285016125e2565b91505092915050565b600080604083850312156126b157600080fd5b60006126bf858286016125e2565b92505060206126d0858286016125e2565b9150509250929050565b6000806000606084860312156126ef57600080fd5b60006126fd868287016125e2565b935050602061270e868287016125e2565b925050604061271f86828701612660565b9150509250925092565b6000806000806080858703121561273f57600080fd5b600061274d878288016125e2565b945050602061275e878288016125e2565b935050604061276f87828801612660565b925050606085013567ffffffffffffffff81111561278c57600080fd5b61279887828801612636565b91505092959194509250565b600080604083850312156127b757600080fd5b60006127c5858286016125e2565b92505060206127d6858286016125f7565b9150509250929050565b600080604083850312156127f357600080fd5b6000612801858286016125e2565b925050602061281285828601612660565b9150509250929050565b60006020828403121561282e57600080fd5b600061283c8482850161260c565b91505092915050565b60006020828403121561285757600080fd5b600061286584828501612621565b91505092915050565b60006020828403121561288057600080fd5b600061288e84828501612660565b91505092915050565b6128a0816139f0565b82525050565b6128af81613a02565b82525050565b60006128c082613898565b6128ca81856138ae565b93506128da818560208601613a73565b6128e381613c0e565b840191505092915050565b60006128f9826138a3565b61290381856138bf565b9350612913818560208601613a73565b61291c81613c0e565b840191505092915050565b6000612932826138a3565b61293c81856138d0565b935061294c818560208601613a73565b80840191505092915050565b6000815461296581613aa6565b61296f81866138d0565b9450600182166000811461298a576001811461299b576129ce565b60ff198316865281860193506129ce565b6129a485613883565b60005b838110156129c6578154818901526001820191506020810190506129a7565b838801955050505b50505092915050565b60006129e46032836138bf565b91507f4552433732313a207472616e7366657220746f206e6f6e20455243373231526560008301527f63656976657220696d706c656d656e74657200000000000000000000000000006020830152604082019050919050565b6000612a4a601c836138bf565b91507f4552433732313a20746f6b656e20616c7265616479206d696e746564000000006000830152602082019050919050565b6000612a8a600a836138d0565b91507f54484952445f574f5244000000000000000000000000000000000000000000006000830152600a82019050919050565b6000612aca6024836138bf565b91507f4552433732313a207472616e7366657220746f20746865207a65726f2061646460008301527f72657373000000000000000000000000000000000000000000000000000000006020830152604082019050919050565b6000612b306019836138bf565b91507f4552433732313a20617070726f766520746f2063616c6c6572000000000000006000830152602082019050919050565b6000612b70600b836138d0565b91507f5345434f4e445f574f52440000000000000000000000000000000000000000006000830152600b82019050919050565b6000612bb0602c836138bf565b91507f4552433732313a206f70657261746f7220717565727920666f72206e6f6e657860008301527f697374656e7420746f6b656e00000000000000000000000000000000000000006020830152604082019050919050565b6000612c16600d836138d0565b91507f3c2f746578743e3c2f7376673e000000000000000000000000000000000000006000830152600d82019050919050565b6000612c56606b836138d0565b91507f222c20226465736372697074696f6e223a2022412073717561726520626f782060008301527f535647207769746820332072616e646f6d6c792067656e65726174656420776f60208301527f7264732e222c2022696d616765223a2022646174613a696d6167652f7376672b60408301527f786d6c3b6261736536342c0000000000000000000000000000000000000000006060830152606b82019050919050565b6000612d086038836138bf565b91507f4552433732313a20617070726f76652063616c6c6572206973206e6f74206f7760008301527f6e6572206e6f7220617070726f76656420666f7220616c6c00000000000000006020830152604082019050919050565b6000612d6e602a836138bf565b91507f4552433732313a2062616c616e636520717565727920666f7220746865207a6560008301527f726f2061646472657373000000000000000000000000000000000000000000006020830152604082019050919050565b6000612dd46029836138bf565b91507f4552433732313a206f776e657220717565727920666f72206e6f6e657869737460008301527f656e7420746f6b656e00000000000000000000000000000000000000000000006020830152604082019050919050565b6000612e3a602e836138bf565b91507f45524337323155524953746f726167653a2055524920736574206f66206e6f6e60008301527f6578697374656e7420746f6b656e0000000000000000000000000000000000006020830152604082019050919050565b6000612ea06002836138d0565b91507f227d0000000000000000000000000000000000000000000000000000000000006000830152600282019050919050565b6000612ee06020836138bf565b91507f4552433732313a206d696e7420746f20746865207a65726f20616464726573736000830152602082019050919050565b6000612f206031836138bf565b91507f45524337323155524953746f726167653a2055524920717565727920666f722060008301527f6e6f6e6578697374656e7420746f6b656e0000000000000000000000000000006020830152604082019050919050565b6000612f86602c836138bf565b91507f4552433732313a20617070726f76656420717565727920666f72206e6f6e657860008301527f697374656e7420746f6b656e00000000000000000000000000000000000000006020830152604082019050919050565b6000612fec6029836138bf565b91507f4552433732313a207472616e73666572206f6620746f6b656e2074686174206960008301527f73206e6f74206f776e00000000000000000000000000000000000000000000006020830152604082019050919050565b6000613052602f836138bf565b91507f4552433732314d657461646174613a2055524920717565727920666f72206e6f60008301527f6e6578697374656e7420746f6b656e00000000000000000000000000000000006020830152604082019050919050565b60006130b8600a836138d0565b91507f7b226e616d65223a2022000000000000000000000000000000000000000000006000830152600a82019050919050565b60006130f86021836138bf565b91507f4552433732313a20617070726f76616c20746f2063757272656e74206f776e6560008301527f72000000000000000000000000000000000000000000000000000000000000006020830152604082019050919050565b600061315e600a836138d0565b91507f46495253545f574f5244000000000000000000000000000000000000000000006000830152600a82019050919050565b600061319e601d836138d0565b91507f646174613a6170706c69636174696f6e2f6a736f6e3b6261736536342c0000006000830152601d82019050919050565b60006131de6031836138bf565b91507f4552433732313a207472616e736665722063616c6c6572206973206e6f74206f60008301527f776e6572206e6f7220617070726f7665640000000000000000000000000000006020830152604082019050919050565b60006132446033836138bf565b91507f416c6c20746f6b656e732068617665206265656e206d696e7465642e204e6f2060008301527f6d6f72652061726520617661696c61626c652e000000000000000000000000006020830152604082019050919050565b60006132aa6005836138d0565b91507f434f4c4f520000000000000000000000000000000000000000000000000000006000830152600582019050919050565b6132e681613a5a565b82525050565b60006132f88284612927565b915081905092915050565b600061330f8285612927565b915061331b8284612927565b91508190509392505050565b60006133338286612927565b915061333f8285612927565b915061334b8284612927565b9150819050949350505050565b60006133648287612958565b91506133708286612927565b915061337c8285612958565b91506133888284612927565b915061339382612c09565b915081905095945050505050565b60006133ac82612a7d565b91506133b88284612927565b915081905092915050565b60006133ce82612b63565b91506133da8284612927565b915081905092915050565b60006133f0826130ab565b91506133fc8285612927565b915061340782612c49565b91506134138284612927565b915061341e82612e93565b91508190509392505050565b600061343582613151565b91506134418284612927565b915081905092915050565b600061345782613191565b91506134638284612927565b915081905092915050565b60006134798261329d565b91506134858284612927565b915081905092915050565b60006020820190506134a56000830184612897565b92915050565b60006080820190506134c06000830187612897565b6134cd6020830186612897565b6134da60408301856132dd565b81810360608301526134ec81846128b5565b905095945050505050565b600060408201905061350c6000830185612897565b61351960208301846132dd565b9392505050565b600060208201905061353560008301846128a6565b92915050565b6000602082019050818103600083015261355581846128ee565b905092915050565b6000606082019050818103600083015261357781866128ee565b9050818103602083015261358b81856128ee565b9050818103604083015261359f81846128ee565b9050949350505050565b600060608201905081810360008301526135c381866128ee565b90506135d260208301856132dd565b6135df6040830184612897565b949350505050565b60006020820190508181036000830152613600816129d7565b9050919050565b6000602082019050818103600083015261362081612a3d565b9050919050565b6000602082019050818103600083015261364081612abd565b9050919050565b6000602082019050818103600083015261366081612b23565b9050919050565b6000602082019050818103600083015261368081612ba3565b9050919050565b600060208201905081810360008301526136a081612cfb565b9050919050565b600060208201905081810360008301526136c081612d61565b9050919050565b600060208201905081810360008301526136e081612dc7565b9050919050565b6000602082019050818103600083015261370081612e2d565b9050919050565b6000602082019050818103600083015261372081612ed3565b9050919050565b6000602082019050818103600083015261374081612f13565b9050919050565b6000602082019050818103600083015261376081612f79565b9050919050565b6000602082019050818103600083015261378081612fdf565b9050919050565b600060208201905081810360008301526137a081613045565b9050919050565b600060208201905081810360008301526137c0816130eb565b9050919050565b600060208201905081810360008301526137e0816131d1565b9050919050565b6000602082019050818103600083015261380081613237565b9050919050565b600060208201905061381c60008301846132dd565b92915050565b6000604051905081810181811067ffffffffffffffff8211171561384957613848613bdf565b5b8060405250919050565b600067ffffffffffffffff82111561386e5761386d613bdf565b5b601f19601f8301169050602081019050919050565b60008190508160005260206000209050919050565b600081519050919050565b600081519050919050565b600082825260208201905092915050565b600082825260208201905092915050565b600081905092915050565b60006138e682613a5a565b91506138f183613a5a565b9250827fffffffffffffffffffffffffffffffffffffffffffffffffffffffffffffffff0382111561392657613925613b52565b5b828201905092915050565b600061393c82613a5a565b915061394783613a5a565b92508261395757613956613b81565b5b828204905092915050565b600061396d82613a5a565b915061397883613a5a565b9250817fffffffffffffffffffffffffffffffffffffffffffffffffffffffffffffffff04831182151516156139b1576139b0613b52565b5b828202905092915050565b60006139c782613a5a565b91506139d283613a5a565b9250828210156139e5576139e4613b52565b5b828203905092915050565b60006139fb82613a3a565b9050919050565b60008115159050919050565b60007fffffffff0000000000000000000000000000000000000000000000000000000082169050919050565b600073ffffffffffffffffffffffffffffffffffffffff82169050919050565b6000819050919050565b82818337600083830152505050565b60005b83811015613a91578082015181840152602081019050613a76565b83811115613aa0576000848401525b50505050565b60006002820490506001821680613abe57607f821691505b60208210811415613ad257613ad1613bb0565b5b50919050565b6000613ae382613a5a565b91507fffffffffffffffffffffffffffffffffffffffffffffffffffffffffffffffff821415613b1657613b15613b52565b5b600182019050919050565b6000613b2c82613a5a565b9150613b3783613a5a565b925082613b4757613b46613b81565b5b828206905092915050565b7f4e487b7100000000000000000000000000000000000000000000000000000000600052601160045260246000fd5b7f4e487b7100000000000000000000000000000000000000000000000000000000600052601260045260246000fd5b7f4e487b7100000000000000000000000000000000000000000000000000000000600052602260045260246000fd5b7f4e487b7100000000000000000000000000000000000000000000000000000000600052604160045260246000fd5b6000601f19601f8301169050919050565b613c28816139f0565b8114613c3357600080fd5b50565b613c3f81613a02565b8114613c4a57600080fd5b50565b613c5681613a0e565b8114613c6157600080fd5b50565b613c6d81613a5a565b8114613c7857600080fd5b5056fe416e204e465420772f20494420257320686173206265656e206d696e74656420746f2025734142434445464748494a4b4c4d4e4f505152535455565758595a6162636465666768696a6b6c6d6e6f707172737475767778797a303132333435363738392b2fa2646970667358221220071a2c828fe745c22f9d5e04aa7997cdba9a9b690e4ca5a9e99826ae02d7671d64736f6c634300080000333c73766720786d6c6e733d27687474703a2f2f7777772e77332e6f72672f323030302f73766727207072657365727665417370656374526174696f3d27784d696e594d696e206d656574272076696577426f783d273020302033353020333530273e3c7374796c653e2e62617365207b2066696c6c3a2077686974653b20666f6e742d66616d696c793a2073657269663b20666f6e742d73697a653a20323470783b207d3c2f7374796c653e3c726563742077696474683d273130302527206865696768743d2731303025272066696c6c3d27272f3e3c7465787420783d273530252720793d273530252720636c6173733d27626173652720646f6d696e616e742d626173656c696e653d276d6964646c652720746578742d616e63686f723d276d6964646c65273e",
  "linkReferences": {},
  "deployedLinkReferences": {}
}